:020000040800F2
:1000000080080020ED0100080D4500085D3F000854
:10001000114400080D0B0008A95900080000000059
:10002000000000000000000000000000C9490008B6
:10003000ED0E000800000000E5470008094D00082B
:10004000070200080702000807020008070200086C
:10005000070200080702000807020008070200085C
:10006000070200080702000807020008910B0008B9
:100070009D0B00080702000807020008070200089D
:1000800007020008000000007D08000807020008C1
:10009000070200080702000807020008070200081C
:1000A000070200080702000807020008070200080C
:1000B00007020008070200080702000807020008FC
:1000C00007020008070200080702000807020008EC
:1000D000070200085159000807020008070200083B
:1000E00007020008070200080702000807020008CC
:1000F00007020008070200080702000800000000CD
:1001000000000000070200080000000007020008CD
:1001100007020008000000000702000807020008AC
:10012000070200080702000807020008070200088B
:10013000070200080000000000000000070200089D
:10014000070200080702000800000000000000008D
:10015000000000000000000000000000000000009F
:10016000000000000000000000000000070200087E
:10017000070200080000000000000000000000006E
:10018000000000000702000800000000000000005E
:10019000000000000000000000000000000000005F
:1001A000000000000000000007020008070200082D
:1001B000070200080702000807020008000000000C
:1001C000000000000702000800000000000000001E
:1001D0000702000807020008DFF80CD000F0CAF997
:1001E000004800475D5B0008800800200648804703
:1001F00006480047FEE7FEE7FEE7FEE7FEE7FEE70C
:10020000FEE7FEE7FEE7FEE7714D0008D9010008B2
:100210002DE9F05F0546002092469B46884606463B
:10022000814640241BE0284641464746224600F0CE
:1002300070F853465A46C01A914110D311461846D9
:10024000224600F057F82D1A67EB01084F46224668
:100250000120002100F04EF817EB00094E41201E4E
:10026000A4F10104DFDC484631462A464346BDE896
:10027000F09FD2B201E000F8012B491EFBD270477B
:100280000022F6E710B513460A4604461946FFF762
:10029000F0FF204610BD00F0004230F000400AD0D0
:1002A000C10D01F56071C0F3160042EA0151C208A8
:1002B00040071143704700200146704701F000439A
:1002C00030B421F0004150EA010206D00A0DA2F537
:1002D0006072C1F31301002A02DC30BC00207047B9
:1002E000440F44EAC104C100E01830BC00EBC25026
:1002F00000F01FB8202A04DB203A00FA02F10020A7
:1003000070479140C2F1200320FA03F31943904053
:100310007047202A04DB203A21FA02F000217047BE
:1003200021FA02F3D040C2F120029140084319465D
:1003300070470029A8BF7047401C490008BF20F043
:100340000100704710B4B0FA80FC00FA0CF050EADB
:10035000010404BF10BC704749B1CCF1200421FA5C
:1003600004F411FA0CF118BF012121430843A3EB57
:100370000C01CB1D4FEA00614FEA102042BF002064
:1003800010BC704700EBC35010440029A4BF10BC40
:100390007047401C490008BF20F0010010BC7047A6
:1003A0002DE9FE4F804681EA0300C00F0C46009005
:1003B00021F0004123F00045B8EB0200A94105D22D
:1003C0004046214690461C460B46024623F000401C
:1003D000104347D0270DC7F30A00C3F30A51029018
:1003E000401A019040286BDAC3F3130040F4801BDD
:1003F0000098924620B10023D2EB030A63EB0B0B6B
:1004000001985946C0F140025046FFF773FF064677
:100410000D4650465946019A00F0BEF810EB080010
:100420006141002487EA115284EAE7731A4340D0FD
:10043000009A62B3019A012A4FEA075215DC001BA9
:1004400061EB02014FF0004202EA0752CDE900429F
:10045000001C41F5801132462B4600F0BEF803B077
:10046000BDE8F08F40462146F9E7001B61EB020131
:10047000001C41F5801300185B412018A2F50017FD
:1004800047EB030140EAD570B6196D4111E06D08E4
:100490004FEA360645EAC0754FEA0752001B61EB8A
:1004A0000201001C41F5801149084FEA3000001993
:1004B000514132462B4603B0BDE8F04F00F07EB804
:1004C0000098012240000023D0EB020263EBE073AE
:1004D000009821464FEAE074B8EB000061EB04019C
:1004E000E9E783F000435BE781F0004158E72DE93D
:1004F000FE4FC3F30A5701F000450024C1F30A562A
:10050000C3F31303C1F3130143F4801312EB020A84
:10051000A64641F48011009543EB030CA7F1010BB3
:1005200016E0B0EB0A0061EB0C01071E71F1000749
:1005300007DA4FF00008D0EB080085F0004568EBC3
:100540000101171A73EB0107EBD3761E001849411E
:100550005E45F6DA50EA010209D0CDE900E5002255
:100560001346029600F039F803B0BDE8F08F20463C
:100570000099F9E7064C074D06E0E06840F00103FA
:1005800094E8070098471034AC42F6D3FFF728FEF2
:10059000C8630008E8630008202A06DBCB17203A6E
:1005A00041FA02F043EAE07306E041FA02F3D04078
:1005B000C2F12002914008431946704710B5141E3D
:1005C00073F1000408DA401C41F1000192185B410C
:1005D0001A4301D120F0010010BD2DE9F04D9246E3
:1005E0009B4611B1B1FA81F202E0B0FA80F22032FA
:1005F0009046FFF77FFE04460F4640EA0A0041EAB4
:100600000B0153465A46084313D0114653EA0100E2
:1006100019D0C8F140025046FFF77BFE05460E4652
:10062000504659464246FFF765FE084305D0012073
:1006300004E020463946BDE8F08D0020054346EA37
:10064000E0762C4337430A986305E40AA0EB0800E0
:100650000022FD0A44EA47540A3002D50020014630
:10066000E9E7010510196941DDE90845001969410B
:10067000BDE8F04DA2E72DE9F04D81EA030404F056
:10068000004B21F0004514464FF0000A23F00041D2
:1006900050EA050220D054EA01021DD0C5F30A57E2
:1006A0000246C5F31303C1F31300C1F30A5640F425
:1006B000801543F48013A7EB0608101BD64608F2FA
:1006C000FD3873EB050002D308F1010801E0921830
:1006D0005B41B8F1000F03DA00200146BDE8F08D60
:1006E00000204FF48011064684460EE0171B73EB82
:1006F000050705D3121B63EB050306434CEA010C07
:1007000049084FEA300092185B4150EA0107EDD1E9
:1007100052EA030012D082EA040083EA050108438A
:1007200005D0101BAB4106D20122002306E00022B7
:100730004FF0004302E06FF0010253101AEB060085
:100740004CEB085110EB0A0041EB0B01BDE8F04DFA
:10075000FFF734BF9FED221A9FED222A20EE010AF7
:10076000B5EE001A30EE010ABDEEC01A11EE100A05
:10077000B5EE400AF1EE10FAB8BF013801EE100AEA
:10078000B8EEC11A30EE410A20EE020ABDEEC01AE0
:100790009FED152A11EE100A002130EE021AB1EB7E
:1007A000502F45F6C4311CBF0020B0EE410AC0F600
:1007B000000101EE100A01EB8001B8EE411A30EEA3
:1007C000410A91ED001A91ED012AB7EE003A33EE9D
:1007D000403A23EE011A20EE020A31EE000A704779
:1007E00083F9223E00000044000000C49FED201A5F
:1007F0009FED202A20EE010ABDEEC01A11EE100A6C
:10080000B5EE400AF1EE10FAB8BF013801EE100A59
:10081000B8EEC11A30EE410A20EE020ABDEEC01A4F
:100820009FED152A11EE100A002130EE021AB1EBED
:10083000502F45F6C4311CBF0020B0EE410AC0F66F
:10084000000101EE100A01EB8001B8EE411A30EE12
:10085000410A91ED001A91ED012AB7EE003A33EE0C
:10086000403A23EE011A20EE020A31EE000A7047E8
:1008700083F9223E00000044000000C4014800F05B
:10088000F3BF0000A8010020F8B504460020009046
:100890002068816811F0010F41D18168214A11421D
:1008A0002ED18168D5432940491C81601E4880684B
:1008B00000F0E07000020DD51C481D490068B0FB37
:1008C000F1F0401C00EB4000800000E0401E009072
:1008D0000028FBD101F0DCFC06461BE0816811F02A
:1008E000010F03D181682940491C816001F0D0FCCF
:1008F000801B02280ED920680068C043C00709D0B9
:10090000E06D40F01000E065206E40F001002066D0
:100910000120F8BD20680168C943C907DED1002065
:10092000F8BD00003F00008000030050540000208C
:10093000400D030000B50346108800EE100AB8EE23
:10094000400A83ED010A508800EE900AF8EE600A32
:10095000C3ED020A908800EE900A5848F8EE600A4B
:10096000C3ED030A03F030FB83ED010A93ED020AA5
:10097000534803F029FB83ED020A93ED030A514823
:1009800003F022FB83ED030AD08800EE900AB8EE54
:10099000602A83ED042A087801287AD148789FEDEF
:1009A0004A1ADFED4A0AA8B3012872D1D3ED011A21
:1009B000D3ED052A20EE010A61EE811A51EEA02A3C
:1009C000D3ED0D1A82EEA13A83ED083A93ED023A87
:1009D000D3ED062A23EE013A53EE202A82EEA13A05
:1009E00083ED093AD3ED072A50EE202A82EEA10AC0
:1009F00083ED0A0A9FED360A62EE000AC3ED0B0A88
:100A000093ED000AF4EEC00AF1EE10FA42DCB0EE0B
:100A1000600A41E0FFE7188E42F21072904234D231
:100A2000D3ED011A20EE010A401C61EE811A21EE7D
:100A3000A02A83ED082AD3ED021A61EE811A9FEDF8
:100A4000251A61EEA01A60EE200AC3ED091AC3ED63
:100A50000A0A93ED050A60EE012A9FED1F0A42EE95
:100A6000002AC3ED052A93ED062A22EE012A01EEA3
:100A7000802A83ED062AD3ED071A21EE811A00EEB3
:100A8000801A83ED071A03E003E00120487000207C
:100A9000188600BD83ED0B0A1048DFED110A80EDCA
:100AA000000A93ED0B0A104820EE200ADFED0D0A34
:100AB00020EE200A80ED070A00BD0000180000208B
:100AC00020000020280000203333534000008039EC
:100AD0002E33113CA4707D3F0AD7233C98000020A0
:100AE0003ACD133FCDCC4C3F1C010020B4EEE00AC0
:100AF000F1EE10FA02DD30EE600A7047B5EEC00A82
:100B0000F1EE10FAF9D230EE200A7047FEE700004D
:100B100070B5B0EE001A2DED028B144690ED080A68
:100B20000D4682ED080A90ED080AD0ED090A00EEA4
:100B3000810ADFED160A80EE201A82ED091A91ED86
:100B40000A0AFFF707FED4ED080A20EE208A95ED89
:100B50000A0AFFF74BFED4ED090A00EE808A84ED05
:100B60000C8A95ED0A0AFFF7F5FDD4ED090A20EE8F
:100B7000208A95ED0A0AFFF739FED4ED080A00EE47
:100B8000C08A84ED038ABDEC028B70BDD7B3DD3F14
:100B9000014801F050B9000058030020014801F05D
:100BA0004AB90000B80300200D4902688A4201D208
:100BB0000C4901E00B492031D2B21423083AB2FBB0
:100BC000F3F2436C02F01F0223F003031944816423
:100BD00004498031C16401219140016570470000E2
:100BE00008040240000802400179074A02EB810232
:100BF0004265054A4432491E826501F01F02012107
:100C00009140C16570470000FC08024030B5D0E952
:100C100013456560446D14B1D0E91645656090F8E0
:100C2000444004F01F050124AC40056C6C6004686E
:100C300063608368102B036803D099600068C2600A
:100C400030BD9A600068C16030BD00009FED781A29
:100C5000784880ED001A9FED780A80ED010A80ED5A
:100C6000020A80ED030A80ED040ADFED740A002118
:100C7000C0ED050AC0ED060AC0ED070A80ED080ABE
:100C800080ED090A80ED0A0A80ED0B0A0186F5EE77
:100C9000000AC0ED0D0A6A480122F2EE040A027051
:100CA00041708270C1700171664841F29A0280ED14
:100CB000001A80ED010A80ED020A80ED030A01743A
:100CC00041748174C174017580ED060A80ED070AD4
:100CD00080ED080A828680ED090A80ED0A0A80ED1F
:100CE0000B0A80ED0C0A80ED0E0A80ED0F0A80EDF4
:100CF000100AA0F84410A0F84610A0F84810524876
:100D0000017080ED010A41818181016180ED050A58
:100D100080ED060A80ED070A80ED080AC0ED090A99
:100D200080ED0A0A80ED0B0A80ED0C0A8186DFED6A
:100D3000470A4748C0ED000ADFED460AC0ED010A48
:100D400080ED020A80ED030A80ED040A80ED050AB9
:100D500080ED060A80ED070A80ED080A80ED090A99
:100D600080ED0A0A80ED0B0A80ED0C0A80ED0D0A79
:100D700080ED0E0ADFED380A80ED0F0AC0ED100A93
:100D8000DFED360AC0ED110A80ED120A80ED130A7C
:100D900080ED140A80ED150A80ED160A80ED170A21
:100DA00080ED180AF0EE080AC0ED190ADFED2C0AF2
:100DB000C0ED1A0ADFED2B0A80F86C10C0ED1C0A9A
:100DC000DFED290AC0ED1D0ADFED280AC0ED1E0A7D
:100DD00080ED1F0A80ED200ADFED250A80ED210A53
:100DE000C0ED220A2448DFED230AC0ED000ADFED42
:100DF000230AC0ED010A2348DFED210AC0ED000AF5
:100E000080ED010A2048C0ED000A80ED010A1F486C
:100E1000C0ED000A80ED010A1D48C0ED000A80ED1A
:100E2000010A1C48C0ED000A80ED010A704700006D
:100E30009A99B1415C000020000000003333D33F99
:100E40000800002098000020E4000020363CBD3D52
:100E50001C010020C71E103C0AD7A33BBD378635B6
:100E600000007A453333134117B75138000034433B
:100E70000000FA4400009643100000200000AF4339
:100E800069CB743E180000202000002028000020BC
:100E9000300000203800002010B50F4A0F491048DC
:100EA000FFF748FD0D490F4800F098F80E4A0D492C
:100EB0000B48FFF72DFE09480321017141780129F4
:100EC00008D18078012805D1BDE8104003490548C4
:100ED00003F0A0BA10BD00000000002008000020B0
:100EE0005C000020E40000201C010020704700008E
:100EF00010B5072000F020F810EE100AFFF7CBF92C
:100F000041EC100B9FED091B04F060FD51EC100B40
:100F1000FFF7D4F900EE100AB5EEC00AF1EE10FAB0
:100F200003DCDFED040A30EE200A10BD00000000F3
:100F3000008076400000B44300EE900AF8EE600AAC
:100F400020EE200A70470000204810B500680168B4
:100F500041F01001016064221D491C4802F08EFF1F
:100F60001C4802F05BFA00211A4802F01BFC042125
:100F7000184802F017FC0821164802F013FC0C2157
:100F8000144802F00FFC0021124802F0A5F90421D8
:100F9000104802F0A1F908210E4802F09DF90D4910
:100FA00040F634000A6850630A6890630968C863B1
:100FB000FFF74CFE08480068416841F0200141609D
:100FC000BDE81040044800F06BBB0000C4020020E4
:100FD0001804002078020020A80100202DE9F0412B
:100FE00001220D460446D6024FF090472DED048BAA
:100FF0003146384601F046F903F018F82081002206
:101000003146384601F03EF920780128208901D187
:10101000C0F58040608180B200EE100AF8EE400A10
:101020009FED411A9FED410A10EE810A84ED060AF8
:10103000DFED3F8AF0EE680AFFF758FD84ED060AFF
:10104000FFF756FF84ED070AF0EE680AFFF74EFD42
:1010500084ED070A687801282CD1A87850BB9FED51
:10106000368A3448F7EE000AB0EE480AB0EE401A6D
:1010700003F0ACFCA08E44F62C41401C80B2A0864C
:10108000884217D994ED0B0AD4ED060A44F6206184
:10109000884230EE200A84ED0B0A0BD30020DFEDEE
:1010A000270A80EE201A84ED0C1A84ED0B8AA086A4
:1010B0000120A870E8789FED229ADFED229AB0EE29
:1010C000008A01280BD002281AD0032828D19FEDCE
:1010D0001E0A84ED090A00BFFFF70AFF12E084ED43
:1010E000018A94ED080ADFED190A08EE200AF0EEF5
:1010F000680A84ED080AFFF7F9FC84ED080AEBE7BB
:1011000094ED070A20EE080A60EE090A80EEA80AAC
:10111000F0EE690A84ED0A0AFFF7E8FC84ED0A0A9A
:10112000BDEC048BBDE8F081E2FFB33CD792A8414F
:101130000000B44398000020000000000000FA43C3
:10114000DB0F4940DB0FC94000002042BC74933CD8
:1011500072B6FEE7704700002DE9F84F4FF0000827
:101160000446CDF800800D4694F85820DFF8EC9343
:10117000616947464046012A0AD00126F84A84F8A8
:10118000586041B1296A012905D0A36EEBB129E06D
:101190000220BDE8F88F6868092838D1A96A4FF4A1
:1011A000785041B12B6801F07C0100EA53400843BC
:1011B000E96A084302E0296800EA51402168CB6CE3
:1011C00013400343CB64606621E0C4E91971A96A46
:1011D000286A31B101F07C01401E0843E96A0843E6
:1011E00000E0401E29682B79C1F3846103F01F03DE
:1011F00099400143A06E401EA066636E43EA01035E
:10120000636604D12068C16C11401943C164206831
:1012100002F0AFFE58B995F8250098B12068C16872
:1012200095F8262021F4401141EA4251C16020681E
:1012300002F0A7FE8246206802F09BFE5AEA0000F8
:101240000DD0FBE095F8260095F82410400540EA03
:1012500001512068C26822F440121143E6E7A86AEF
:1012600030B1E86A20B195F8250001285ED003E08E
:1012700095F82500012804D02068C16821F000718C
:1012800003E02068C16841F00071C16095F830004A
:10129000012852D02068016921F002010161AA6889
:1012A00029682068B2F1004F38D002F076FE20683D
:1012B000416921F00041416120686969C268C2F357
:1012C000C102520091402A69042A44D000EB8200F6
:1012D0002B68026EDFF88CC203F0F84302EA0C02BE
:1012E0000B431A4342F00041016620682A69A9694C
:1012F00000EB8200026E22F080720A430266297FB0
:1013000022682869012923D05FF0000102EB8000E8
:10131000026E22F000720A4302668FE0002202F0A1
:101320003CFE2068416941F00041C4E7E06D40F0B7
:101330002000E0654FF00108A8E7D5E90D10014352
:101340002068026922F4FF7242F002021143A5E70D
:101350004FF00071DAE7002102F001FE400320683F
:101360004FF0000172D002F0FAFD90FAA0F0B0FA4E
:1013700080F1286842036ED090FAA0F0B0FA80F0B5
:10138000814204D100221146206802F015FE01219D
:10139000206802F0E4FD400320684FF001015DD0B9
:1013A00002F0DDFD90FAA0F0B0FA80F12868420367
:1013B00059D090FAA0F0B0FA80F0814204D1002216
:1013C0000121206802F0F8FD0221206802F0C7FD2B
:1013D000400320684FF0020148D002F0C0FD90FAAF
:1013E000A0F0B0FA80F12868420344D090FAA0F04F
:1013F000B0FA80F0814204D100220221206802F07C
:10140000DBFD0321206802F0AAFD400320684FF0B5
:10141000030133D002F0A3FD90FAA0F0B0FA80F1FE
:10142000286842032FD090FAA0F0B0FA80F08142F1
:1014300004D100220321206802F0BEFD20688168EB
:1014400011F0010F22D0B6E000E004E002F087FDC9
:10145000C0F384618DE7C0F3846091E702F07FFD03
:10146000C0F38461A2E7C0F38460A6E702F077FDD1
:10147000C0F38461B7E7C0F38460BBE702F06FFD9F
:10148000C0F38461CCE7C0F38460D0E72A7B29688D
:1014900050F8B03FC1F3120C23EA0C0302F0180C11
:1014A000314A22FA0CF20A4013430360E9684945C5
:1014B0007ED1286841031CD090FAA0F1B1FA81F1E5
:1014C000491C01F01F0109294FEA403132D8002997
:1014D00012D000BF90FAA0F1B1FA81F101F101013F
:1014E00001F01F0106FA01F609D100BFC0F38461C3
:1014F00009E0C0F38461E3E7C0F38461EEE790FAAA
:10150000A0F1B1FA81F101F1010101F01F0146EAF8
:10151000816102D1C0F3846003E090FAA0F0B0FAD8
:1015200080F000F1010000F01F0000EB400041EAF4
:1015300000513AE000290ED090FAA0F1B1FA81F101
:1015400001F1010101F01F0106FA01F60ED100BF01
:10155000C0F384610EE0C0F38461F1E700007F40D6
:101560000040100400F0FF03FFFF070090FAA0F115
:10157000B1FA81F101F1010101F01F0146EA816137
:1015800002D1C0F3846003E090FAA0F0B0FA80F0DA
:1015900000F1010000F01F002B4A00EB400002EBBD
:1015A000005041EA000141F00071AA68206800E0A3
:1015B00001E002F0F2FC25482A68024240D02448AB
:1015C0008168244B01F0E0719A4202D0224B9A428A
:1015D0001BD10B0219D42268B2F1A04F30D182681E
:1015E00041F4000122F0E0720A4382601B481C496A
:1015F0000068B0FBF1F0801C00EB4000800000E0D0
:10160000401E00900028FBD11AE0164D164BAA424E
:1016100007D1CD0105D422689A4211D041F08071E2
:1016200009E0124DAA420BD14A0209D422689A421B
:1016300006D041F48001826822F0E0720A438260A1
:1016400084F858704046A4E5000020FE00000880A1
:1016500000030050000021C31000C090540000207F
:10166000400D0300000052C700010050000084CB71
:101670000168D1F8802008490A800268D2F88420E5
:101680004A800268D2F888208A800068D0F88C00EE
:10169000C880FFF701BC0000000000207047000078
:1016A0002DE9F04104463548806800F01F052068A8
:1016B00002F05FFC08BB2168C868C96C00F00040FC
:1016C00011F4C07F00D190B194F85800012814D0D3
:1016D000012084F858002046FFF7D6F802004FF0AA
:1016E00000030CD084F858301046BDE8F081E06D5E
:1016F00040F02000E0650120F7E70220F5E7E06D0B
:10170000C00504D5206E20F00800206600E02366A6
:10171000E06D42F20101884340F48050E065184FCB
:1017200021684FF0A046B94201D1304600E008469A
:10173000884200D01DB9E06D20F48010E065602083
:10174000086084F858302068B84200D006468642C7
:1017500009D045B1062D06D0072D04D0E06D40F428
:101760008010E065C0E7C16811F0007FBCD18168DE
:10177000044B194041F008018160B5E700030050B7
:1017800000010050C0FFFF7F704770472DE9F04710
:10179000044690F858009CB00E464FF0000901280E
:1017A00015D0012084F85800002517951895206859
:1017B0004FF0A04840450ED1284F0097384602F020
:1017C000E0FB8246206802F0DCFB60B10EE0022004
:1017D0001CB0BDE8F087E06D40F02000E06584F8C3
:1017E00058500120F4E7BAF1000F09D0E06D40F045
:1017F0002000E0654FF0010984F858504846E7E7BB
:101800001748326840F61F71002A826822F460424D
:1018100016D094F8383042EA433273681A43826033
:10182000D8F80820BB6802F0010203F001031A4354
:10183000E2D1B36832681A4383688B431A430BE0E2
:101840008260D8F80820BB6802F0010203F00103AF
:101850001A43D1D182688A438260CDE700010050EB
:1018600000030050704770472DE9F05F04460068A0
:1018700006684568DFF854B2DBF8080000F01F077F
:10188000B0070ED5A8070CD5E06DC00603D4E06DF7
:1018900040F40060E0652046FFF75CFC2168022010
:1018A0000860DFF82CA270074FF0A04801D5680748
:1018B00003D4300737D5280735D5E06DC00603D4EB
:1018C000E06D40F40070E065206802F05EFB20B33C
:1018D0002068504501D1424600E00246824208D0CD
:1018E0003FB1052F05D0092F03D0504503D1414604
:1018F00002E0C16801E00146C96889040DD40168AD
:1019000009070AD502F039FB58B3E06D40F010002A
:10191000E065206E40F0010020662046FFF7A2FF40
:1019200021680C200860B00601D5A80603D4700613
:1019300058D5680656D5E06DC00603D4E06D40F476
:101940000050E0652068C16C11F4C07F1AD00021FE
:10195000894602F01AFB02462068504514D14346DE
:1019600013E02068416821F00C014160E06D20F433
:101970008070E065E06DC004CFD4E06D40F0010000
:10198000E065CAE70121E3E70346834208D03FB19F
:10199000062F05D0072F03D0504503D1414602E062
:1019A000C16801E00146C968B9F1000F14D08B018C
:1019B00002D58AB18A040FD4026852060CD5890276
:1019C0000AD402F0D2FAE8B3E06D40F01000E0650E
:1019D000206E40F0010020662046FFF749FE216896
:1019E0006020086030060BD5280609D5E06D40F46C
:1019F0008030E065204600F067F9216880200860AB
:101A0000F0050CD5E8050AD5E06D40F40030E0653E
:101A10002046FFF7B9FE21684FF480700860B005DA
:101A20000CD5A8050AD5E06D40F48020E06520467D
:101A3000FFF7ABFE21684FF400700860F0062ED56A
:101A4000E80600E008E02AD5E06BD0B1AFB1DBF8E2
:101A5000080000F4604013E02068416821F0600154
:101A60004160E06D20F48050E065E06DC005B3D4C6
:101A7000E06D40F00100E065AEE72068C068C00797
:101A800050B1E06D40F48060E065206E40F00200EF
:101A900020662046FFF7E7FE2168102008607005E9
:101AA00012D5680510D5E06D40F48040E065206EE9
:101AB00040F00800206621684FF4806008602046EE
:101AC000BDE8F05FFFF7EABDBDE8F09F00030050FE
:101AD00000010050F8B54FF0000504002E460095B7
:101AE00002D0E06D10B107E00120F8BD204600F003
:101AF000EDF8266684F8586020688168C1F340716B
:101B000019B18168684A1140816020688168C1F319
:101B1000007189B98168654A114041F08051816046
:101B2000634864490068B0FBF1F04000801C00E0AD
:101B3000401E00900028FBD120688168C1F300712D
:101B400041B9E16D41F01001E165216E41F0010103
:101B50002166012502F011FAE16DC90600D430B109
:101B6000E06D40F01000E06501252846F8BDE06D0D
:101B700020F4807040F00200E0652068806810F07A
:101B8000010F11D14FF0A04080684B4900F00100D7
:101B9000896801F00101084306D1484861688268FC
:101BA00022F47C120A438260E168E06B627F0843A2
:101BB000A16841EA4231084394F8241040EA014008
:101BC000012904D1218D3E4A02EB41410843E16ADB
:101BD00029B101F47871226B014342EA01002268C5
:101BE000D168384B19400143D16020680169626BAC
:101BF00021F0406111430161206802F0B6F970BB29
:101C0000207F94F83810800340EA41022168C868B8
:101C100044F2020398431043C860206900282068FA
:101C200001690AD041F480310161206850F8C01F79
:101C300022696FF30D01114307E021F48031016146
:101C4000206850F8C01F6FF30D01016094F8400048
:101C500001280CD02068016921F00101016160694F
:101C600001282068016B21F00F0111D013E0D4E9A5
:101C700011010843D4E913121143084321680A698A
:101C800040F2FC739A43104340F001000861E6E71C
:101C9000226A521E11430163E06D20F0020040F001
:101CA0000100E06561E70000C0FFFF5FC0FFFF7F4C
:101CB00054000020400D03000001005000030050BC
:101CC0000000FEFF0740F0FF7047000010B598B01D
:101CD0000446142111A8FEF7D3FA44216846FEF702
:101CE000CFFA2068B0F1A04F2ED14FF40040009001
:101CF00080030F90684600F0C9FB08B1FFF728FA8F
:101D00001248C16C41F40051C164C16C01F400512E
:101D10001691C16C41F00101C164C06C11A900F0C1
:101D2000010016900F2011900320129000201390B4
:101D30004FF0904000F082F900221146122000F08E
:101D40000DFB122000F0FCFA18B010BD001002408C
:101D500010B590F8253000210122022B03D0042178
:101D6000C163012122E003681C6824F00E041C609A
:101D7000836C1C6824F480741C6003681C6824F065
:101D800001041C6090F84430046C03F01F0302FA55
:101D900003F36360D0E913345C60436D33B11C68B6
:101DA00024F480741C60D0E916345C6080F825202F
:101DB000002280F82420084610BD70B590F8252038
:101DC000002401212346022A07D00422C26380F89E
:101DD000251080F82430012429E00268156825F0D8
:101DE0000E0515600268156825F001051560826C06
:101DF000156825F48075156090F84420056C02F094
:101E00001F0201FA02F26A60D0E913255560426DA3
:101E100032B1156825F480751560D0E91625556036
:101E200080F8251080F82430816B01B18847204666
:101E300070BDC06B7047F0B4016C0C6801680D6830
:101E400090F8442002F01F06042202FA06F323420F
:101E500011D06B070FD50B689B0603D40B6823F0DA
:101E600004030B6090F8441001F01F018A40016CDC
:101E70004A60016B1DE0022303FA06F727424FF088
:101E8000000C4FF0010218D0AF0716D50C68A4065D
:101E900005D40C6824F00A040C6080F8252090F822
:101EA000441001F01F018B40016C4B6080F824C08E
:101EB000C16A00291AD0F0BC08470823B340234266
:101EC00014D02B0712D50B6823F00E030B6090F88B
:101ED0004410036C01F01F0102FA01F15960C26362
:101EE00080F8252080F824C0416BE2E7F0BC704701
:101EF00070B504000CD02B4A21681420914209D2FD
:101F0000294A0A44B2FBF0F08000606427480AE0E6
:101F1000012070BD234A52420A44B2FBF0F0800017
:101F20006064204808382064022084F825000A688C
:101F300047F6F0708243D4E902031843D4E904352C
:101F40002B431843A3691843E3691843236A1843D2
:101F5000104308602046FEF727FEA0680025B0F574
:101F6000804F00D16560A16C20790860D4E913012D
:101F700041606068401E032808D82046FEF734FE02
:101F8000606D0560D4E91601416002E06565A565F4
:101F9000E565E563012084F8250084F824500020DD
:101FA00070BD000008040240F8FFFDBF00000240C1
:101FB00070B5044690F82400002501280CD00120BB
:101FC00084F8240094F825600020012E06D084F8BF
:101FD00024000225284670BD022070BD022684F828
:101FE0002560E0632068066826F00106066020464A
:101FF000FEF70CFE206B00282068016802D041F03B
:102000000E0106E021F0040101602068016841F042
:102010000A010160A06C0168C90303D5016841F49D
:1020200080710160606D18B1016841F480710160D8
:102030002068016841F001010160CBE72DE9F04F14
:10204000DFF82092002301260324A9F1040B85B0B8
:102050000F2709F1040AABF1040EFAE006FA03F5C2
:102060002A407CD091F804C00CF0030CBCF1010FA5
:1020700002D0BCF1020F26D1D0F808C0CDF800C0C4
:102080004FEA430C04FA0CF8CDF810C0DDF800C09C
:102090002CEA080CCDF800C0D1F80C80DDF810C097
:1020A00008FA0CF8DDF800C048EA0C08C0F808800F
:1020B000D0F804C02CEA050C0D79C5F300159D403D
:1020C00045EA0C0545600D79ED43AD070ED0C568B6
:1020D0004FEA430804FA08FC25EA0C05D1F808C0C9
:1020E0000CFA08FC4CEA050CC0F80CC00D7905F0A0
:1020F0000305022D16D1DD0800EB850CCDF808C0D4
:10210000DCF820805D074FEAD56C07FA0CF528EA69
:1021100005080D6905FA0CF5DDF808C045EA080563
:10212000CCF8205005684FEA430CCDF808C004FAFB
:102130000CFC25EA0C0591F804C00CF00308DDF84E
:1021400008C008FA0CF848EA0508C0F800804D6895
:1021500015F4403F7CD0444DD5F860C000E077E0F6
:102160004CF0010CC5F860C02D6E23F0030C05F097
:10217000010500953D4D65440295AD684FEA837CAD
:102180004FEA1C7807FA08FC25EA0C05B0F1904FDD
:1021900006D0DFF8DCC0604505D14FF0010C20E02F
:1021A0004FF0000C1DE0DFF8CCC0604502D14FF0CD
:1021B000020C16E0DFF8C0C0604502D14FF0030CFE
:1021C0000FE0DFF8B8C0604502D14FF0040C08E022
:1021D000DFF8ACC0604502D14FF0050C01E04FF0D4
:1021E000060C0CFA08FC4CEA050C029DC5F808C068
:1021F000D9F80050CC46D1F8048095435FEAC8284E
:1022000000D51543CCF80050DAF80050D446D1F888
:10221000048095435FEA882800D51543CCF8005028
:10222000DBF80050DC46D1F8048095435FEA88383B
:1022300000D51543CCF80050DEF80050F446D1F834
:10224000048095435FEAC83800D51543CCF80050A8
:102250005B1C0A6832FA03F57FF400AF05B0BDE8F5
:10226000F08F00000804014000100240000001400F
:102270000004004800080048000C00480010004816
:10228000001400480AB18161704781627047000004
:1022900001488068704700004800002002488168BB
:1022A00042681144816070474800002010B5002446
:1022B000032000F073F80F2000F008F808B10124A3
:1022C00001E000F025F8204610BD000070B50E4E6C
:1022D00005460024706898B14FF47A71B1FBF0F0B4
:1022E0000A490968B1FBF0F000F046FF40B9102D33
:1022F00006D200222946501E00F030F8356000E07A
:102300000124204670BD0000480000205400002039
:102310000A4882B0016E41F001010166016E01F0D0
:1023200001010091816D41F080518165806D00F067
:102330008050009002B000F0A1B8000000100240F0
:10234000002809DB00F01F020121914040098000B4
:1023500000F1E020C0F8001170470000F0B40E4B0F
:102360001B680C46C3F30223C3F10705042D00D9F3
:102370000425191D072901D2002300E0DB1E0126D8
:1023800006FA05F1491E214099409E40761E1640EE
:102390003143F0BC03F009BB0CED00E0064900F04E
:1023A000070208684FF6FF03184040EA0220034A7C
:1023B00010430860704700000CED00E00000FA05D3
:1023C0002B492C4B0A6832214A432B4940B1B0F5C6
:1023D000007F086829D020F4C06040F480602CE0C1
:1023E0000868C0F34120022804D051F8800F20F47F
:1023F000807022E0D1F8800020F48070C1F8800065
:10240000086820F4C06040F400700860B2FBF3F08C
:10241000401C00E0401E4A69520501D50028F9D150
:10242000486940050AD503207047C0F341200228BF
:1024300006D051F8800F40F480700860002070478B
:10244000D1F8800040F48070C1F88000086820F462
:10245000C06040F400700860B2FBF3F0401C00E084
:10246000401E4A695205DBD50028F9D1D8E70000A3
:102470005400002040420F00007000400248816874
:1024800041F4804181607047007000402DE9F843BD
:102490000446006800269D4D00035ED5A86D002708
:1024A000C00008D4A86D40F08050A865A86D012731
:1024B00000F080500090DFF85892D9F8001041F4F5
:1024C0008071C9F80010FFF7E3FE804606E000BF08
:1024D000FFF7DEFEA0EB080002282BD8D9F8000099
:1024E000C005F5D5D5F8900010F4407014D0216CDB
:1024F000814211D0D5F89000D5F8901020F44070AA
:1025000041F48031C5F89010D5F8901021F4803155
:10251000C5F89010C5F89000C00711D0FFF7B8FEBD
:10252000804641F2883907E0FFF7B2FEA0EB0801D0
:10253000494501D903260BE0D5F890008007F3D573
:10254000D5F89000216C20F440700843C5F8900045
:102550001FB1A86D20F08050A8652078C00707D073
:10256000D5F88800616820F003000843C5F88800AA
:102570002078800707D5D5F88800A16820F00C00E6
:102580000843C5F888002078400707D5D5F88800AB
:10259000E16820F030000843C5F888002078000783
:1025A00007D5D5F88800216920F0C0000843C5F898
:1025B00088002078800607D5D5F88800616920F466
:1025C00040600843C5F888002078400607D5D5F854
:1025D0008800A16920F440500843C5F8880020789D
:1025E000000607D5D5F88800E16920F4404008438B
:1025F000C5F888002088C00507D5D5F88800216A6D
:1026000020F440300843C5F888002088800507D5AD
:10261000D5F88800616A20F440200843C5F8880096
:10262000208840050FD5D5F88800A16A20F4401015
:102630000843C5F88800A06AB0F5801F03D1E86898
:1026400040F48010E860208800050FD5D5F8880098
:10265000E16A20F440000843C5F88800E06AB0F55C
:10266000800F03D1E86840F48010E8602088C0043F
:102670000FD5D5F88800216B20F040700843C5F8CD
:102680008800206BB0F1807F03D1E86840F48010AF
:10269000E86020884FF0006180040ED5D5F88800EE
:1026A000626B20F040601043C5F88800606B884280
:1026B00003D1E86840F48010E860208840040ED51B
:1026C000D5F88800A26B20F040601043C5F8880060
:1026D000A06B884203D1E86840F48010E86020884D
:1026E00000040FD5D5F88800E16B20F04050084376
:1026F000C5F88800E06BB0F1805F03D1E86840F472
:102700008030E8603046BDE8F883000000100240E9
:10271000007000402DE9F0470E4605004FF000071D
:1027200025D0DFF8AC81D8F8000000F00F00B042EF
:102730000CD2D8F8001021F00F013143C8F8001076
:10274000D8F8000000F00F00B04210D12968614CA9
:10275000C80741F2883A5AD06868DFF87C910328AC
:1027600008D0022820682DD0400500282CDB01204D
:10277000BDE8F08720688001F9D5E06800F0030229
:10278000E068C0F30310401C032A19D0534A00BF6D
:10279000B2FBF0F0E268C2F306225043E268C2F3F3
:1027A0004162521C5200B0FBF2F0484517D9A068B4
:1027B00010F0F00F0CD0880711D5A86840B10EE0DA
:1027C000474AE5E78003D0E700F0B6F8484506D968
:1027D000A06820F0F00040F08000A0608027A06892
:1027E000696820F003000843A060FFF751FD8146AF
:1027F00006E000BFFFF74CFDA0EB090151453AD8B8
:10280000A068696800F00C00B0EB810FF2D1286875
:10281000810714D5400703D5A06840F4E060A060AC
:102820002878000705D5A06820F4605040F4E060E7
:10283000A060A068A96820F0F000084304E0802FA1
:1028400003D1A06820F0F000A060D8F80010404646
:1028500001F00F01B14216D9016821F00F01314397
:102860000160FFF715FD074607E000BFFFF710FD09
:10287000C11B514501D903207AE7D8F8000000F0C8
:102880000F00B042F2D12878400705D5A068E9686A
:1028900020F4E0600843A0602878000706D5A0680F
:1028A000296920F4605040EAC100A06000F044F8BB
:1028B000A1680C4AC1F30311515C01F01F01C8402B
:1028C0000949086009480068BDE8F047FFF7FEBC09
:1028D000002002400010024000B4C4040024F400B0
:1028E00000127A00AA5B0008540000204800002073
:1028F0000548064900688968054AC1F30221515C10
:1029000001F01F01C8407047540000200010024031
:10291000BA5B00080548064900688968054AC1F3A2
:10292000C221515C01F01F01C840704754000020D3
:1029300000100240BA5B0008184910B58868C0F35F
:1029400081021748012A0BD08A684310C2F3810222
:10295000022A06D08A68C2F38102032A03D000202B
:1029600010BD184610BDCA6802F00304CA68C2F35D
:102970000312521C032C02D0B0FBF2F001E0B3FBB7
:10298000F2F0CA68C968C2F306225043C1F341613C
:10299000491C4900B0FBF1F010BD000000100240DE
:1029A0000024F4002DE9F84304007AD02078F84D93
:1029B000C00747D0A868E96800F00C0001F00301E7
:1029C0000C2802D0082817D001E0032914D0606831
:1029D000B0F5803F17D0B0F5A02F286817D020F4AD
:1029E00080302860286820F4802028606068E0B18A
:1029F000FFF74EFC064614E02868800322D5606885
:102A00000028D2D01EE0286840F48030EDE740F482
:102A100080202860F7E700BFFFF73AFC801B64289E
:102A200070D828688003F7D50CE0FFF731FC064624
:102A300005E000BFFFF72CFC801B6428F0D8286855
:102A40008003F7D4207880074CD5A868E96800F0A7
:102A50000C0001F003010C2802D004280DD001E085
:102A600002290AD0E068002828682BD040F4807042
:102A70002860FFF70DFC064619E02868400502D5DE
:102A8000E068002891D06868217C20F0FE4040EA90
:102A900001606860BF480068FFF718FC002800D19B
:102AA00020E072E1FFF7F4FB801B0228B8D8286809
:102AB0004005F7D56868217C20F0FE4040EA0160BF
:102AC00068600FE020F480702860FFF7E1FB0646A5
:102AD00005E000BFFFF7DCFB801B0228A0D82868B8
:102AE0004005F7D42078000729D560690028D5F87B
:102AF000940013D040F00100C5F89400FFF7C8FB24
:102B0000064606E090E000BFFFF7C2FB801B0228EC
:102B100086D8D5F894008007F6D510E020F00100A3
:102B2000C5F89400FFF7B4FB064604E0FFF7B0FBDE
:102B3000801B022878D8D5F894008007F6D4207836
:102B4000400761D5A86D0026C00008D4A86D40F0EC
:102B50008050A865A86D012600F0805000908E4836
:102B60000168C90511D40168804641F48071016093
:102B7000FFF78EFB074604E0FFF78AFBC01B022825
:102B800052D8D8F80000C005F6D5A068012815D0A5
:102B90000528D5F8900016D020F00100C5F8900067
:102BA000D5F8900020F00400C5F89000A06841F22C
:102BB0008838B8B1FFF76CFB07460EE0D5F89000F7
:102BC00040F00100F0E740F00400C5F89000F5E7A0
:102BD000FFF75EFBC11B414526D8D5F89000800762
:102BE000F6D50CE0FFF754FB074604E0FFF750FB77
:102BF000C11B414518D8D5F890008007F6D41EB106
:102C0000A86D20F08050A8652078800629D5A0699D
:102C10000028D5F8980013D040F00100C5F89800BE
:102C2000FFF736FB064606E075E000BFFFF730FB16
:102C3000801B02286FD8D5F898008007F6D510E0E1
:102C400020F00100C5F89800FFF722FB064604E0DB
:102C5000FFF71EFB801B02285DD8D5F8980080077F
:102C6000F6D4E069F0B3A968C1F3810103295DD00E
:102C70000228286820F08070286003D0FFF708FB46
:102C800004464BE0FFF704FB064604E0FFF700FBB9
:102C9000801B02283FD828688001F7D4F4E9080196
:102CA0006FF00F0202EB01110843218A5204490818
:102CB00002EB4151A26841EA02210843217D4FF015
:102CC0007E42490802EB41610843217B40EAC16032
:102CD000E968324A11400843E860286840F0807093
:102CE000286000E05EE0E86840F08070E860FFF790
:102CF000CFFA044605E000BFFFF7CAFA001B02281E
:102D000009D828688001F7D54CE000BFFFF7C0FA6A
:102D1000001B022802D90320BDE8F883286880013F
:102D2000F4D4E8681E490840E8603BE00128F3D08D
:102D3000E868226A00F00301914226D1616A00F03E
:102D4000F0020901103991421FD1A26A00F4FE413C
:102D5000B1EB022F19D194F82C2000F07841B1EB9F
:102D6000C26F12D1218E00F4C00249084905A1F5B5
:102D70000011914209D194F8341000F0C060490864
:102D80004906A1F1007181420CD00120C4E7000086
:102D90000010024048000020007000400C809F019D
:102DA000FCFFEEFE0020B7E770B5040009D0606AB2
:102DB000002540B125616561A56294F85D0040B1D0
:102DC0000CE0012070BD6068B0F5827FF4D0E56151
:102DD000F2E784F85C50204600F05CF8022084F8AA
:102DE0005D002068016821F040010160E1684FF456
:102DF000E062914201D9002001E04FF48050B1F52A
:102E0000706F02D0914200D0A562A188228901F49E
:102E1000827102F404421143227C02F00202114347
:102E2000227D02F001021143228B02F40072114351
:102E3000227F02F03802114394F8202002F0800231
:102E40001143228D02F40052114322681160A169DE
:102E5000042202EA114194F8242000F4805002F088
:102E60001002114394F8342002F008021143A289A1
:102E700002F4706211430143206841602068C16917
:102E800021F40061C1612566012084F85D00002005
:102E900070BD0000F0B587B0044614216846FDF708
:102EA000EFF91849206888422AD11748016E41F489
:102EB00080510166016E01F480510591C16C41F0B1
:102EC0000101C164C06C022500F001000590602082
:102ED000CDE9000500240320CDE9024005264FF08E
:102EE0009047694604963846FFF7A8F8802000907E
:102EF000CDE90154CDE9034669463846FFF79EF80F
:102F000007B0F0BD00300140001002402DE9FF5F26
:102F1000044690F85C0000260E9F1D4693464FF035
:102F2000010901280FD04FF0010A84F85CA0FFF7D7
:102F3000AFF9804694F85D00616801280DD0B1F5C5
:102F4000827F08D103E0022004B0BDE8F09FA168B1
:102F500009B9042801D0022609E10198002876D099
:102F6000BBF1000FFBD0002DF9D094F85D000428D0
:102F700002D0052084F85D0000202066C4F840B02F
:102F8000A4F84650A4F844500199A163E587A587A9
:102F9000E0642065E0684FF4E061884201D8012DCB
:102FA00004D92068426822F4805203E02068426815
:102FB00042F48052426020680268520603D40268DC
:102FC00042F040020260E0688842606848D908B177
:102FD000012D3DD1A06B21680088C860A06B801CCA
:102FE000A063E08F401EE08732E020688168890797
:102FF0000FD5E18F69B1B9F1010F0AD1A16B098831
:10300000C160A06B801CA063E08F401EE0874FF082
:10301000000920688168C9070FD0B4F8461061B173
:10302000C068216C0880206C801C2064B4F84600C5
:10303000401EA4F846004FF00109FFF729F9A0EB64
:103040000800B84204D3781C02D003268DE08AE041
:10305000E08F0028C9D1B4F846000028C5D177E038
:1030600008B1012D6DD1E08F0128A06B08D921682E
:103070000088C860A06B801CA063E08F801E07E002
:10308000216800780873A06B401CA063E08F401E8D
:10309000E08756E02068816889071AD5E18FC1B1C1
:1030A000B9F1010F15D1E18F0129A16B07D9098869
:1030B000C160A06B801CA063E08F801E06E00978D1
:1030C0000173A06B401CA063E08F401EE0874FF0AF
:1030D000000920688168C90728D0B4F8461029B3D0
:1030E000B4F84610012914D9C068216C0880206CFE
:1030F000801C2064B4F84600801EA4F84600B4F892
:103100004600012810D82068416841F48051416090
:103110000AE0007B216C0870206C401C2064B4F82D
:103120004600401EA4F846004FF00109FFF7B0F832
:10313000A0EB0800B84202D3781C02D085E7002F2C
:1031400083D0E08F0028A5D1B4F846000028A1D193
:1031500042463946204601F046FB10B101262020A8
:103160002066206E08B1012601E084F85DA00020F1
:1031700084F85C003046E7E610B5401EB0F1807F71
:1031800001D3012010BD4FF0E02460610F216017D2
:1031900002F00BFC0020A06107202061002010BD80
:1031A00030B590F83C20012A42D0012280F83C2022
:1031B000CA688B6822F440721A434B6822F480621A
:1031C0001A430B6822F400621A430B6922F48052FE
:1031D0001A434B6922F400521A430B6B22F48042CB
:1031E0001A430B8B22F4702242EA0342CB6922F08D
:1031F00080521A430F4D03680024AB4202D00E4D9B
:10320000AB4210D10D8D22F4700242EA05520D6AD4
:1032100022F080722A434D6A22F000722A43C96A62
:1032200022F000520A435A6480F83C40002030BD2E
:10323000022030BD002C014000340140F0B590F870
:103240003C20012A3AD0012580F83C50022280F827
:103250003D2003685A689C68194E1A4FB34201D04A
:10326000BB4204D122F4700C4A6842EA0C02DFF837
:1032700058C002EA0C02D1F800C04CEA020CC3F8B4
:1032800004C00268B2420DD0B2F1804F0AD00F4B99
:103290009A4207D00E4B9A4204D0BA4202D00D4B4C
:1032A0009A4204D1896824F080031943916080F820
:1032B0003D50002180F83C100846F0BD0220F0BDD2
:1032C000002C0140003401408FFFFFFD000400404E
:1032D000000800400040014010B50446022249B1F8
:1032E00004290ED0082913D094F84700012816D0DD
:1032F000012010BD94F844000128F9D184F844203D
:103300000FE094F845000128F2D184F8452008E048
:1033100094F846000128EBD184F8462001E084F8B7
:1033200047200422206801F096FD2068416C41F49A
:10333000004141641049206888420ED0B0F1804FAE
:103340000BD00E49884208D00D49884205D00D495E
:10335000884202D00C49884207D181680B4A11404B
:10336000062906D0B1F5803F03D0016841F0010184
:103370000160002010BD0000002C0140000400404E
:1033800000080040003401400040014007000100F7
:1033900010B5040003D094F83D0010B107E00120FF
:1033A00010BD002084F83C00204600F023F80220E5
:1033B00084F83D00211D206801F0E2FC012084F822
:1033C000480084F83E0084F83F0084F8400084F808
:1033D000410084F8420084F8430084F8440084F8F3
:1033E000450084F8460084F8470084F83D0000203A
:1033F00010BD000008B500680649884208D106489B
:10340000016E41F400610166006E00F400600090FE
:1034100008BD0000002C01400010024090F83D1053
:10342000012901D001207047022180F83D10006879
:103430000F4988420ED0B0F1804F0BD00D49884221
:1034400008D00D49884205D00C49884202D00C4969
:10345000884207D181680B4A1140062906D0B1F590
:10346000803F03D0016841F00101016000207047F6
:10347000002C0140000400400008004000340140DE
:10348000004001400700010070B5044690F83C0080
:103490000025012814D0012684F83C60022084F81D
:1034A0003D0022689068364B184020F47F409060C1
:1034B000086870282ED010DC10F00F0F03D021E028
:1034C0004FF0020070BD4FEA2012072A1AD2DFE83F
:1034D00002F0525252524A3840002A4BC21A9842C5
:1034E00049D009DCB0F5805F0DD0B0F5005F1CD08D
:1034F000B0F1101F06D13EE0102A3CD0202A3AD06D
:10350000502A38D0012584F83D60002084F83C0022
:10351000284670BDCB68D1E90121206801F0A8FCE4
:103520002068816841F0770109E0CB68D1E9012189
:10353000206801F09DFC2068816841F48041816031
:10354000E1E7CA684968206801F03CFE5021206824
:1035500006E0CA684968206801F045FE60212068DD
:1035600001F090FCCFE7CA684968206801F02AFEA4
:1035700040212068F4E7226801461046F0E7000089
:1035800088FFCEFF20001000F0B587B0044614215C
:103590006846FCF775FE1E492068884236D11D48F2
:1035A000C16C41F00201C164C16C01F002010591DE
:1035B000C16C41F00101C164C06C022500F0010042
:1035C00005904FF4C04000900024CDE90154062638
:1035D000114FCDE9034669463846FEF72FFDA80393
:1035E0000090CDE901540420CDE9034069463846F6
:1035F000FEF724FD4FF4E0600090CDE90154CDE9E1
:10360000034669464FF09040FEF718FD07B0F0BD45
:10361000002C0140001002400004004870B5044630
:1036200090F83C0000260D4601280BD0012084F8BC
:103630003C000C2A4AD007DC82B1042A20D0082A98
:1036400006D131E0022070BD102A53D0142A63D075
:103650000126002084F83C00304670BD206801F04F
:103660001BFC2068816941F0080181612068816943
:1036700021F004018161206881692A69114311E008
:10368000206801F057FC2068816941F40061816184
:103690002068816921F480618161206881692A69DB
:1036A00041EA02218161D4E7206801F08BFC2068A7
:1036B000C16941F00801C1612068C16921F00401BC
:1036C000C1612068C1692A69114311E0206801F0D5
:1036D000C1FC2068C16941F40061C1612068C16911
:1036E00021F48061C1612068C1692A6941EA02212F
:1036F000C161AEE7206801F0F5FC2068016D41F082
:10370000080101652068016D21F004010165206850
:10371000016D2A69114311E0206801F01BFD20684A
:10372000016D41F4006101652068016D21F4806143
:1037300001652068016D2A6941EA0221016588E777
:1037400010B5040003D094F83D0010B107E001204B
:1037500010BD002084F83C00204600F022F8022032
:1037600084F83D00211D206801F00AFB012084F847
:10377000480084F83E0084F83F0084F8400084F854
:10378000410084F8420084F8430084F8440084F83F
:10379000450084F8460084F8470084F83D00002086
:1037A00010BD704730B50446022269B1042912D019
:1037B000082917D00C291CD0102921D094F84300D7
:1037C000012824D0012030BD94F83E000128F9D111
:1037D00084F83E201DE094F83F000128F2D184F8DF
:1037E0003F2016E094F840000128EBD184F84020F7
:1037F0000FE094F841000128E4D184F8412008E06A
:1038000094F842000128DDD184F8422001E084F8D8
:1038100043200122206801F011FB194B206819494F
:10382000194A984209D0884207D0904205D0174DD6
:10383000A84202D0164DA84203D1456C45F400457C
:103840004564206898420CD0B0F1804F09D0114BEC
:10385000984206D0104B984203D0884201D0904243
:1038600007D181680D4A1140062906D0B1F5803F85
:1038700003D0016841F001010160002030BD00006B
:10388000002C014000340140004001400044014050
:10389000004801400004004000080040070001000B
:1038A00090F88410012918D0012180F88410242177
:1038B000C0F8881001680A680B6823F001030B60E8
:1038C00022F0005100224266036819602021C0F8EE
:1038D000881080F884201046704702207047704797
:1038E000704770B5044690F8840001281DD001206F
:1038F00084F884002420C4F88800206805680268E1
:1039000022F0010202602068826822F060620A43AD
:103910008260204601F07AFC206805602020C4F80F
:103920008800002084F8840070BD022070BD70B54E
:10393000044690F8840001281DD0012084F88400FA
:103940002420C4F8880020680568026822F001027B
:1039500002602068826822F060420A43826020464A
:1039600001F054FC206805602020C4F88800002085
:1039700084F8840070BD022070BD7047704770B538
:103980000446D0F88800D4F88C60216889684FF02C
:103990001005090618D5212816D12068083050E8EE
:1039A000001F21F0800140E80012002AF5D1E06FED
:1039B00038B1FEF7CDF920B1E06FFEF73AFA2028D2
:1039C00023D0204601F0D4FD2068806840061AD537
:1039D000222E18D12068083050E8001F21F0400145
:1039E00040E80012002AF5D1D4F8800040B1FEF77B
:1039F000AFF928B1D4F88000FEF71BFA202804D0D4
:103A0000204601F08BFD002070BDC4F890500320CB
:103A100070BD70472DE9F04103680446D869196804
:103A20009A6840F60F0528424FF000054FF0020655
:103A30000AD187067ED501F0200702F0805C57EAA4
:103A40000C0777D0616F3AE1B24FDFF8CCC2174074
:103A500001EA0C0C57EA0C0C6CD05FEAC07C0CD06D
:103A60005FEAC15C09D54FF0010CC3F820C0D4F85F
:103A7000903043F00103C4F89030830709D5D30791
:103A800007D023681E62D4F8903043F00403C4F8D2
:103A9000903043070AD5D30708D026680423336241
:103AA000D4F8903043F00203C4F8903003070CD5EB
:103AB00001F020033B4308D0266808233362D4F882
:103AC000903043F00803C4F8903003050BD54B0148
:103AD00009D526684FF400633362D4F8903043F080
:103AE0002003C4F89030D4F89030002B3DD08006ED
:103AF00009D501F0200002F08051084303D0616F26
:103B000009B120468847D4F89000216889684906A1
:103B100002D410F0280F2AD0204601F0FFFC2068C4
:103B2000806840061ED52068083050E8001F21F04C
:103B3000400100E021E040E80012002AF3D1D4F86F
:103B4000800078B175498163D4F88000FEF735F9BB
:103B500000280AD0D4F88000816B00E02046BDE840
:103B6000F04108472046FFF754FFBDE8F0812046AA
:103B7000FFF74FFFC4F89050F7E7D4F86CC0202748
:103B8000BCF1010F7ED15FEAC06C7BD55FEAC16CEE
:103B900078D51020186220688068400645D5D4F892
:103BA0008010086840680004000CDED0B4F85C2087
:103BB0008242DAD9A4F85E000868006880062CD436
:103BC000216851E8000F20F4807041E80002002ACB
:103BD000F6D12068083050E8001F21F0010140E8CC
:103BE0000012002AF5D12068083050E8001F21F0AB
:103BF000400140E80012002AF5D1C4F88C70E56657
:103C0000206850E8001F21F0100140E80012002A4F
:103C1000F6D1D4F88000FEF79BF82667B4F85C0074
:103C2000B4F85E10401A81B230E0B4F85C00B4F829
:103C30005E10401A81B2B4F85E00002895D00029C9
:103C400093D0226852E8000F20F4907042E80003FD
:103C5000002BF6D12F4BDB432068083050E8002FB3
:103C60001A4040E8002CBCF1000FF5D1C4F88C706C
:103C7000E5666567226852E8000F20F0100042E810
:103C8000000300E006E0002BF4D126672046FFF792
:103C900026FE6AE7C60209D5560207D54FF4801002
:103CA00018622046BDE8F041FFF768BE03060AD55A
:103CB00001F0800302F40002134304D0A16F002935
:103CC0007FF44CAF51E7420611D54A060FD5204686
:103CD000026852E8001F21F0400142E80013002B67
:103CE000F6D1C0F88870856700F036F93DE702022A
:103CF00006D54A0004D52046BDE8F041FFF73DBE99
:103D0000C001C6D50029C4DA2046BDE8F041FFF75E
:103D1000E7BD00000100001020010004C5530008A9
:103D200010B5040003D0D4F8880010B107E00120DA
:103D300010BD002084F88400204600F027F82420DD
:103D4000C4F888002068016821F001010160A06AC0
:103D500010B1204601F07CFA204601F021FC012838
:103D6000E6D02068416821F4904141602068816874
:103D700021F02A0181602068016841F001010160A1
:103D80002046BDE8104001F0C7BA0000F0B597B07A
:103D90000646142111A8FCF773FA44216846FCF783
:103DA0006FFA3149306888425CD101200024CDE9A6
:103DB00000046846FEF76AFB08B1FDF7C9F92B4815
:103DC000016E41F480410166016E01F4804116915B
:103DD000C16C41F00201C164C06C11A900F0020085
:103DE0001690C02011900220CDE912040720CDE9E1
:103DF00014401F48FEF722F91F4D1E4805F1080127
:103E00002860192068601020802781E891006C618B
:103E1000AC61EC6128462C62FEF76AF808B1FDF748
:103E200097F9F567AE62144D12486035143028607A
:103E30001820C5E90104C5E903476C61AC61EC6178
:103E400028462C62FEF754F808B1FDF781F9C6F850
:103E50008050002211462520AE62FEF77FFA252011
:103E6000FEF76EFA17B0F0BD0038014000100240B6
:103E700000040048080002405803002030B4D0F885
:103E80008C30202B02D0022030BC7047A9B1A2B1E7
:103E90000023C3660A4C0368A3420BD05B681B0275
:103EA00008D5046854E8003F43F0806344E80035D7
:103EB000002DF6D130BC01F0ADBC0120E4E70000DC
:103EC000008000407047704770B50446D0F8880005
:103ED000202801D0022070BD39B332B32165A4F887
:103EE0005420A4F856200021C4F890102120C4F8D2
:103EF0008800E06FD8B1154BC362E36F14481863B4
:103F0000E36F14485863E06F134681632068E56FE0
:103F100000F128022846216DFEF74AF838B110203A
:103F2000C4F890002020C4F88800012070BD2168EA
:103F3000402008622068083050E8001F41F08001EE
:103F400040E80012002AF5D1002070BDCF540008CF
:103F500011550008D953000870477047FEE700EB81
:103F60008100006E00F0F84070478068C0F3C00028
:103F700070478068C0F3C00070478068C0F380005D
:103F800070478068C0F380007047C06810F4406FCD
:103F900001D00020704701207047042303EAD15369
:103FA00010B518444369C1F3045107248C40A3435E
:103FB0008A401343436110BD00EB8100016E21F084
:103FC0000041114301667047F0EE400A90ED001A7F
:103FD000B7EE000AD0ED011A30EE410A20EE210AB8
:103FE00001EE200A80ED010A704700007CB50C4DFF
:103FF0000446002210212846FEF744F909A00323B5
:10400000006801900A200090224601A90648FEF7A8
:104010007DFF012210212846FEF734F97CBD000007
:1040200000080048FFFFFF001402002008B56846A2
:10403000FFF7DCFF9DF801009DF80010800840EAC2
:10404000811008BD70B592B000240F9410943C21EB
:1040500068461194FCF714F935484FF0A04101254A
:1040600001604FF44031C0E9011400F11001042651
:10407000C46081E8700004774577056280F82440C9
:1040800080F83840C46380F84040FDF723FD08B154
:10409000FDF75EF80FA926480F94FDF777FB08B1EE
:1040A000FDF756F823480090092001900220029065
:1040B0007F200594CDE9030684200A908DF82440E2
:1040C00080208DF825400B9008968DF826408DF8BD
:1040D000304069461648FDF73FF808B1FDF738F85B
:1040E0001548009040F20F10019069461048FDF706
:1040F00033F808B1FDF72CF81048009040F2152075
:10410000019069460A48FDF727F808B1FDF720F845
:104110000B48009040F21B30CDE901056946044888
:10412000FDF71AF8002801D0FDF712F812B070BDA3
:10413000A801002002003004040060080800900C70
:104140001000C010114808B5816C41F00401816471
:10415000816C01F004010091816C41F001018164E6
:10416000806C002200F00100009011460B20FEF749
:10417000F5F80B20FEF7E4F8002211460C20FEF7BC
:10418000EDF8BDE808400C20FEF7DAB80010024058
:104190002DE9F04186B014216846FCF771F82348F8
:1041A000C16C41F02001C164C16C01F02001059196
:1041B000C16C41F00101C164C16C01F001010591C4
:1041C000C16C41F00401C164C16C01F004010591AE
:1041D000C16C41F00201C164C06C154F00F00200D7
:1041E0000590002210213846FEF74CF84FF4006687
:1041F0004FF09048002231464046FEF743F8102029
:104200000125CDE9000500240320CDE902406946DF
:104210003846FDF713FF0096CDE901546946404644
:104220000394FDF70BFF06B0BDE8F08100100240DB
:1042300000080048124810B5104901604FF482711F
:10424000416000214FF4E062C0E902120122C0E99E
:104250000412520282611822C0E90721072241623A
:10426000C0E90A1201634163FEF79EFD002803D0F6
:10427000BDE81040FCF76CBF10BD000000300140ED
:104280001402002030B59BB0002419941A9417949E
:104290001894149415941C2168461694FBF7F0FFAB
:1042A000342107A8FBF7ECFF3E483D49C0E9001464
:1042B0002021816041F26801C0E9031401214161BC
:1042C00080218161FFF764F808B1FCF741FF4FF4EA
:1042D0008050179017A93348FFF7D6F808B1FCF7BC
:1042E00037FF3048FFF72CFA08B1FCF731FF702593
:1042F000CDE9145414A92B481694FEF79FFF08B17A
:10430000FCF726FF6020009040F63400CDE9010460
:104310000394049405940022694622480694FFF70A
:104320007DF908B1FCF714FF042269461D48FFF728
:1043300075F908B1FCF70CFF082269461948FFF728
:104340006DF908B1FCF704FF4FF47A60CDE9005035
:104350000C2269461348FFF761F908B1FCF7F8FE33
:104360004FF400600790401008908010CDE90904D8
:104370004001CDE90B400D9400030E94CDE90F40B0
:10438000C012CDE9124007A911940648FEF708FFB4
:1043900008B1FCF7DDFE0348FFF7F6F81BB030BDAF
:1043A000002C014078020020184810B51649016021
:1043B0004FF461314160002181600C22C160C0E98D
:1043C00004128161C161016241628162FFF7A8FC50
:1043D00008B1FCF7BDFE00210C48FFF7A8FA08B1B0
:1043E000FCF7B6FE00210948FFF77BFA08B1FCF79D
:1043F000AFFE0648FFF754FA002803D0BDE810408E
:10440000FCF7A6BE10BD000000380140C402002029
:10441000FEE7000070B505462DED028B08799FED93
:10442000338A01282AD0324C022831D002220328B4
:1044300057D0042857D1CA702946204600F0D8F832
:1044400094ED210A84ED120A2946294800F030F93A
:1044500094ED180A84ED020A84ED0B8A244800F0DA
:1044600056F895ED0A1AD4ED0F0A94ED060A214884
:10447000BDEC028BBDE8704000F0A8BA0120C87006
:1044800095ED0A1A1B48F0EE480AB6EE000AEFE76F
:104490001948F0EE000A9FED1A1A90ED000A19482B
:1044A00020EE200ADFED150A20EE200AC0EE010AF8
:1044B00090ED000A30EE800ADFED130A80ED000A6D
:1044C000FCF714FB80ED000A0322CA7090ED000A8D
:1044D000FCF78CF9D5ED080A20EE200A84ED0B0AD2
:1044E000BCE7CA70B0E7BDEC028B70BD00000000F5
:1044F0001C0100209800002010000020DB0F494024
:1045000000409C4644000020DB0FC940FEE790EDD0
:10451000020AD0ED030A70EE601AC0ED041A90EDA5
:10452000051AD0ED012A02EEA11A80ED051A90EDD0
:10453000070AF1EE400AB4EEE01AF1EE10FA02D2E8
:10454000B0EE601A06E0B4EEC01AF1EE10FA01DD2A
:10455000B0EE401A80ED051A90ED002A02EE211A05
:1045600080ED061AB4EEE01AF1EE10FA02D2B0EEC7
:10457000601A06E0B4EEC01AF1EE10FA01DDB0EEFA
:10458000401A80ED061A90ED0B1AD0ED0C1A71EE60
:10459000611AC0ED0D1A90ED0E1A02EEA11A80ED0F
:1045A0000E1AB4EEE01AF1EE10FA02D2B0EE601A72
:1045B00006E0B4EEC01AF1EE10FA01DDB0EE401ADA
:1045C00080ED0E1A02EE211A80ED0F1AB4EEE01AF9
:1045D000F1EE10FA02D2B0EE600A06E0B4EEC01AB4
:1045E000F1EE10FA01DCB0EE410A80ED0F0A7047DF
:1045F00070B504460D46806FFBF74DFE41EC100B85
:104600009FED281B01F0E2F951EC100BFBF756FE71
:1046100000EE100A84ED1E0AB5EEC00AF1EE10FAA3
:1046200005D2DFED220A30EE200A84ED1E0AD5ED18
:10463000060A70EE601AC4ED1F1A94ED200AD4ED3C
:104640001D0A00EEA10A84ED200AD4ED220AB1EE83
:10465000601AB4EEC10AF1EE10FA02D2B0EE410ACD
:1046600006E0B4EEE00AF1EE10FA01DDB0EE600A09
:1046700084ED200A94ED1C2A02EE210A84ED210A21
:10468000B4EEC10AF1EE10FA02D2B0EE410A06E031
:10469000B4EEE00AF1EE10FA01DDB0EE600A84ED4E
:1046A000210A70BD00000000008076400000B44385
:1046B00070B5044690F86C000D46411C84F86C10EF
:1046C00009287CD96989AA89881A2861B0F5005F10
:1046D00002DDA0F5804005E010F5005F03DAC2F5C9
:1046E00080400844286100EE100AD5ED050A3A48DA
:1046F000B8EEC00A30EE800ADFED360A85ED050A15
:1047000020EE200AA98184ED140AFFF75DFC84EDF8
:10471000140A84ED150A3148FFF756FC84ED150A9A
:104720009FED2F0A002085ED050A84F86C0094EDBA
:104730001A0AD4ED120AB1EE401AF4EEC10AF1EEF3
:1047400010FA02D2B0EE410A06E0F4EEC00AF1EE31
:1047500010FA01DCB0EE600A84ED120AD4ED140AFE
:1047600070EE601AC4ED161A94ED170AD4ED110A12
:1047700000EEA10A84ED170AD4ED190AB1EE601A11
:10478000B4EEC10AF1EE10FA02D2B0EE410A06E030
:10479000B4EEE00AF1EE10FA01DDB0EE600A84ED4D
:1047A000170A94ED102A02EE210A84ED180AB4EEDD
:1047B000C10AF1EE10FA03D2B0EE410A07E008E0B8
:1047C000B4EEE00AF1EE10FA01DDB0EE600A84ED1D
:1047D000180A70BD0060EA40300000203800002058
:1047E000000000007047F8B515460E460B460092D3
:1047F000044600224FF4C05100F01AF888B933463D
:10480000002280212046009500F082F848B9334606
:1048100000224FF4C0612046009500F009F80028FE
:1048200004D0206E40F0200020660320F8BD000078
:104830002DE9FE4F4FF0000A984617460E460446F3
:104840000C9D8DF804A0FDF723FD411BA8EB01058D
:10485000FDF71EFD814620684FF4C06B0C300290BE
:104860002A480068C0EBC00000EB8000000D6843E0
:10487000009043E05E4506D12FB9029800788DF88C
:1048800004009DF80400B8F1FF3F37D0FDF700FDAC
:10489000A0EB0900A84203D215B1009858B32BE051
:1048A0002068416821F0E00141606068B0F5827FD6
:1048B0000BD1A068B0F5004F02D0B0F5806F04D1E5
:1048C0002068016821F040010160A06AB0F5005F36
:1048D00009D12068016821F4005101602068016855
:1048E00041F400510160012084F85D0084F85CA06F
:1048F0000320BDE8FE8F0025401E009020688068E0
:104900003040B842B6D10020F3E700005400002048
:104910002DE9F8431E46914688460446089DFDF75A
:10492000B7FC401B351AFDF7B3FC07462548006865
:10493000C0F3CB30684338E0701C37D0FDF7A8FCDB
:10494000C01BA84203D215B1009860B32CE02068C8
:10495000416821F0E00141606068B0F5827F0BD1D1
:10496000A068B0F5004F02D0B0F5806F04D1206888
:10497000016821F040010160A06AB0F5005F09D133
:104980002068016821F4005101602068016841F449
:1049900000510160012084F85D00002084F85C0073
:1049A0000320BDE8F8830025401E00902068816840
:1049B00038EA010004D000214945BDD10020F0E7CC
:1049C0000121F9E7540000207047000010B5F0EE17
:1049D000401A2DED068BB0EE41AA044690ED000A78
:1049E000DFEDC59A808E89EE801A00EE100AB8EECF
:1049F000400A21EE000A01EE100AB8EE411A9FEDBE
:104A0000BF2A21EE809A20EE808A61EE028A29EE8A
:104A1000090A08EE080A01F05BF8B4EEE80AF1EEC4
:104A200010FA05DDC8EE800A29EE209A28EE208AC9
:104A3000B0EE4A0AFBF78EFE60EE088AB0EE4A0A34
:104A4000FBF7D4FE49EE408AB0EE4A0AFBF7CEFEF1
:104A500020EE088AB0EE4A0AFBF77CFE09EE008AD7
:104A600084ED018AB0EE480A18EEA90A84ED020A24
:104A7000DFEDA30AB0EE481AB5EEC08A18EEA01A10
:104A800000210120F1EE10FA84ED031A01DD2074FB
:104A900000E02174B5EEC00AF1EE10FA01DD607499
:104AA00000E06174B5EEC01AF1EE10FA01DDA074F9
:104AB00000E0A174A17CB0EE480A627CB0EE481A16
:104AC000890008EEA90A01EB420108EEA01A227C37
:104AD000F6EE001A1144C9B220EE210AE17461EE2B
:104AE000210A84ED068A84ED070AC4ED080A072925
:104AF00013D2DFE801F012040A60676F7700C4ED9B
:104B0000090A84ED0A0A022006E084ED090AB1EEE2
:104B1000480A84ED0A0A06202075A08E94ED092A21
:104B200094ED0A1A00EE100A72EE010AB8EE400A7D
:104B3000F4EEC00AF1EE10FA17DD00EE100AB8EE3E
:104B4000400A20EE022A82EE200A02EE100AB8EE97
:104B5000422A22EE012A82EE201A84ED0B0A84ED0D
:104B60000C1A84ED090A84ED0A1A00EE100AB0EE60
:104B7000412AB5EE001AF8EE400A94ED090A072919
:104B800070EEC00A70EEC20A20EE811A84ED0E1A91
:104B9000F0EE410A40EE210AC4ED0F0AB0EE600AC1
:104BA00002EE210A84ED100A3CD2DFE801F03B2539
:104BB0002E6677809000B1EE600A84ED090A84EDDC
:104BC0000A8AA9E7B1EE480A84ED090AC4ED0A0A87
:104BD0000420A1E784ED098AB1EE400A84ED0A0AB7
:104BE000032099E7B1EE400A84ED090AB1EE600AAC
:104BF00084ED0A0A05208FE7FCEEE00A10EE901A19
:104C0000FCEEC10AA4F844103FE0BCEEC11ABCEEB1
:104C1000C00A11EE101AA4F8441050E010EE101A59
:104C2000A4F84810B4F84410B1B3A0F13202914294
:104C300000DD11468BB2A4F84430B4F8461061B3DD
:104C4000A0F13202914200DD1146A4F84610B4F8FA
:104C50004810D9B33238814200DC0846A4F8480035
:104C6000284801684B63026834F8461F9163006866
:104C70006188C163BDEC068B10BDBCEEC11AFCEEB1
:104C8000E00A11EE101AA4F8441010EE901ABCEECF
:104C9000C00AA4F84610C1E728E029E0BCEEC00A2B
:104CA00010EE101ABCEEE00AA4F8441017E0BCEEB7
:104CB000C00A10EE101ABCEEC10AA4F8441010EE9F
:104CC000101ABCEEE00AA4F84610A7E712E0FCEECA
:104CD000E00ABCEEC00A10EE901AA4F8441010EEE0
:104CE000101ABCEEC10AA4F8461097E70121A1E70B
:104CF0000121AAE70120B1E7D7B3DD3F3ACD133F49
:104D0000D7B3DDBF78020020FDF7C8BA10B594B064
:104D100038216846FBF7B4FA14210EA8FBF7B0FA65
:104D20000020FDF74DFB01210804CDE9001003240C
:104D3000CDE9084102202A21CDE90A1007900C9004
:104D40000D906846FDF72EFE08B172B6FEE70F2003
:104D5000CDE90E04002010901190129004210EA8AD
:104D6000FDF7D8FC002801D072B6FEE714B010BDE4
:104D70000248016841F470010160704788ED00E06D
:104D80002DE9F0430268264B264D274E274C4FF065
:104D90008049984207D0484505D0A84203D0B04288
:104DA00001D0A04203D122F070074A683A43204F55
:104DB000DFF880C0DFF8808098420DD048450BD0E6
:104DC000A84209D0B04207D0A04205D0B84203D0D3
:104DD000604501D0404503D122F44075CA682A439A
:104DE0004D6922F080022A4302608A68C2620A6822
:104DF0008262984207D0A04205D0B84203D06045F5
:104E000001D0404501D10969016301214161016976
:104E1000C90703D0016921F001010161BDE8F083F8
:104E2000002C014000040040000800400034014014
:104E300000400140004401400048014010B501F02D
:104E40001F030121046A99408C430462016A9A405D
:104E50001143016210BD10B501F00F030421046A73
:104E600099408C430462016A9A401143016210BD6B
:104E700010B5846842EA032224F47F440A432243A3
:104E8000826010BD8268034B1A400A4342F007015A
:104E9000816070478FFFCFFF2DE9F043056A026AFA
:104EA00022F001020262436882691C4C25F002056F
:104EB00022400C6822F0030214438A68194E2A43E8
:104EC000174D194FDFF864C0DFF86490A84207D08F
:104ED000B04205D0B84203D0604501D0484506D164
:104EE00022F00808CA6842EA080222F00402A84236
:104EF00007D0B04205D0B84203D0604501D0484544
:104F000005D14D6923F440731D438B692B434360E6
:104F10008461496841630262BDE8F0838FFFFEFF50
:104F2000002C014000340140004001400044014099
:104F300000480140F0B5056A026A22F010020262E0
:104F400042688369194C1B4E23400C6823F440735C
:104F500043EA042425F020038D6843EA0513144D29
:104F6000A84201D0B04206D1CF6823F0800343EAC3
:104F7000071323F04003A8420AD0B04208D00E4DD8
:104F8000A84205D00D4DA84202D00D4DA84207D130
:104F90004D6922F4406242EA85028D6942EA850247
:104FA00042608461496881630362F0BDFF8FFFFE48
:104FB000002C014000340140004001400044014009
:104FC00000480140F0B5056A026A22F4807202626C
:104FD0004368C269194C1B4E22400C6822F0030240
:104FE000144325F400728D6842EA0522144DA8424C
:104FF00001D0B04206D1CF6822F4006242EA072213
:1050000022F48062A8420AD0B04208D00E4DA842D5
:1050100005D00E4DA84202D00D4DA84207D14D69D2
:1050200023F4405343EA05138D6943EA05134360B3
:10503000C4614968C1630262F0BD00008FFFFEFFDA
:10504000002C014000340140004001400044014078
:1050500000480140F0B5056A026A22F480520262FB
:105060004268C369194C1B4E23400C6823F44073FB
:1050700043EA042425F400538D6843EA0533144DB4
:10508000A84201D0B04206D1CF6823F4004343EADE
:10509000073323F48043A8420AD0B04208D00E4D13
:1050A000A84205D00D4DA84202D00D4DA84207D10F
:1050B0004D6922F4404242EA85128D6942EA851226
:1050C0004260C461496801640362F0BDFF8FFFFE66
:1050D000002C0140003401400040014000440140E8
:1050E0000048014030B5056A026A22F4803202624B
:1050F0004268036D114C23400C681C4325F40033B7
:105100000D8943EA05430E4DA8420BD00D4DA84230
:1051100008D00D4DA84205D00C4DA84202D00C4D30
:10512000A84204D14D6922F4803242EA052242604D
:10513000046549688164036230BD00008FFFFEFF93
:10514000002C014000340140004001400044014077
:105150000048014030B5046A026A22F480120262FB
:105160004268036D114D24F400142B400D6843EA8E
:1051700005230D8944EA05540D4DA8420BD00D4D71
:10518000A84208D00C4DA84205D00C4DA84202D030
:105190000B4DA84204D14D6922F4802242EA8522B7
:1051A000426003654968C164046230BDFF8FFFFE41
:1051B000002C014000340140004001400044014007
:1051C0000048014010B5036A046A24F00104046237
:1051D000846924F0F00444EA021423F00A020A432A
:1051E0008461026210BD10B5036A046A24F01004E1
:1051F0000462846923F0A00324F4704444EA023278
:1052000043EA01118261016210BD000030B5416EB8
:10521000B9B1026891689268C1F342610B4B520FB9
:105220009C5CE50003F10804A25CB5FBF2F2A0F877
:105230006A205A5C615CD200B2FBF1F1A0F8681000
:1052400030BD0121A0F86A10F8E700009A5B000861
:1052500090F82810090706D501684A68836B22F484
:1052600000421A434A6090F82810C90706D0016826
:105270004A68C36A22F400321A434A6090F8281040
:10528000890706D501684A68036B22F480321A4305
:105290004A6090F82810490706D501684A68436BB0
:1052A00022F480221A434A6090F82810C90606D5D5
:1052B00001688A68C36B22F480521A438A6090F8AE
:1052C0002810890606D501688A68036C22F400520A
:1052D0001A438A6090F82810490611D501684A6877
:1052E000436C22F480121A434A60416CB1F5801F6E
:1052F00006D101684A68836C22F4C0021A434A60EE
:1053000090F82810090606D501684A68C06C22F496
:10531000002202434A6070472DE9F8430026044604
:10532000C0F89060FCF7B4FF8046206800684FF03A
:10533000200500076FF07E4713D54346002229045D
:105340002046009700F0BAFA58B1216851E8000FE2
:1053500020F0800041E80002002AF6D1C4F888500D
:1053600021E020680068400722D5434600224FF420
:1053700080012046009700F0A1FAC8B1216851E8E9
:10538000000F20F4907041E80002002AF6D1206856
:10539000083050E8001F21F0010140E80012002A07
:1053A000F5D1C4F88C5084F884600320BDE8F883FC
:1053B000C4F88850C4F88C5044F86C6F6660267648
:1053C0000020F3E710B5806A0021A0F85E10A0F875
:1053D0005610FEF71EFB10BD70B5846AD4F8880025
:1053E000D4F88C50216889684FF00006090606D56C
:1053F000212804D1A4F85660204600F0B9F82068AE
:105400008068400606D5222D04D1A4F85E602046AF
:1054100000F084F8D4F8900040F01000C4F8900038
:105420002046FEF7F6FA70BD10B50146806A09689D
:1054300009684FF0000289062DD4A0F85E200368A9
:1054400053E8001F21F4807143E80014002CF6D1CA
:105450000168083151E8003F23F0010341E80034BE
:10546000002CF5D10168083151E8003F23F04003DA
:1054700041E80034002CF5D12021C0F88C10C16E19
:10548000012908D1016851E8003F23F0100341E8E9
:105490000034002CF6D10267C16E012902D0FEF75C
:1054A00011FD10BDB0F85C10FEF719FA10BD10B573
:1054B000806A01210167C16E012902D0FEF703FD58
:1054C00010BDB0F85C104908FEF709FA10BD10B520
:1054D0000146806A09680968890616D40021A0F887
:1054E00056100168083151E8002F22F0800241E88F
:1054F0000023002BF5D1026852E8001F41F0400163
:1055000042E80013002BF6D110BDFEF725FD10BDBB
:1055100010B5806AFEF721FD10BD000010B50268CD
:1055200052E8001F21F4907142E80013002BF6D1DD
:105530000E4B0268083252E8001F194042E800147E
:10554000002CF6D1C16E012908D1016851E8002F65
:1055500022F0100241E80023002BF6D12021C0F8F0
:105560008C100021C166416710BD0000FEFFFFEFF7
:10557000026852E8001F21F0C00142E80013002B2E
:10558000F6D10168083151E8002F22F4000241E809
:105590000023002BF5D12021C0F8881070470000AF
:1055A0002DE9F0410446016880682269E3691043EF
:1055B000626900251A431043DFF82CC20A688B4B3E
:1055C0001A4002430A6020684168E26821F44051B1
:1055D000114341602168A069614501D0226A1043EE
:1055E0008A68834B1A4002438A602068C16A626AF3
:1055F00021F00F011143C1627E4923687E488B422E
:105600000DD1D0F8880010F0030006D0012855D045
:10561000022842D003283FD152E001203DE07749E3
:105620008B420BD1D0F8880010F00C0035D0042844
:1056300033D0082840D00C282ED141E070498B424D
:105640000BD1D0F8880010F0300026D0102835D0CB
:10565000202831D030281FD132E06A498B420BD14B
:10566000D0F8880010F0C00017D0402826D080283D
:1056700022D0C02810D123E063450DD1D0F8880096
:1056800010F4406009D0B0F5806F17D0B0F5006F0E
:1056900012D0B0F5406F13D010205B495B4F00264D
:1056A0004FF4004263453BD160B1022813D0042877
:1056B0000BD0082872D10DE00220EEE70420ECE7C1
:1056C0000820EAE7FDF714F901E0FDF735F90100DC
:1056D00001D17CE01146606A37F810206768B1FBA1
:1056E000F2F007EB4703834270D8B0EB073F6DD869
:1056F000002308461946FAF78BFD090241EA1061BA
:1057000002027808101871413A460023FAF780FD2A
:105710003F4AA0F54071914258D82168C86056E0D0
:10572000E3694FF6EF7893422CD109284ED2DFE897
:1057300000F00508114D0D4D4D4D1000FDF7D8F846
:1057400001E0FDF7E7F8010004D140E0FDF7F4F8CF
:10575000F9E71146606A37F81000B1FBF0F041003C
:10576000606801EB5001B1FBF0F0A0F11001414580
:105770002CD84FF6F0710140C0F34200014320687D
:10578000C16024E0092821D2DFE800F005091220D9
:105790000E2020201100FDF7ABF802E016E0FDF727
:1057A000B9F8010004D112E0FDF7C6F8F9E7114697
:1057B000606A37F81000B1FBF0F1606801EB50014E
:1057C000B1FBF0F0A0F1100141450AD901250120FB
:1057D000A4F86A0024F8680F2846E6602661BDE850
:1057E000F08180B299E7000000800040F369FFCFAC
:1057F000FFF4FF1100380140001002400044004057
:1058000000480040004C00400024F400825B000887
:10581000FFFC0F0070B58165A0F85C2000210446F4
:10582000C0F890102220C4F88C00D4F88000F0B1A9
:105830001F4BC362D4F880301E481863D4F8803000
:105840001D485863D4F8800013468163A56D216814
:105850002A462431D4F88000FCF7AAFB38B1102086
:10586000C4F890002020C4F88C00012070BD20698D
:1058700040B1216851E8000F40F4807041E8000217
:10588000002AF6D12068083050E8001F41F00101DD
:1058900040E80012002AF5D12068083050E8001FC7
:1058A00041F0400140E80012002AF5D1002070BD0F
:1058B00029540008AF540008D95300082DE9F047D7
:1058C000994617460D4604464FF00008089E33E0FF
:1058D000701C31D0FCF7DCFCA0EB0900B04218D8FA
:1058E000BEB120680168490726D5802D24D0402DFF
:1058F00022D0C169C94309070DD408250562204695
:10590000FFF70CFEC4F8905084F884800120BDE8B5
:10591000F0870320FBE7C069C04300050CD4216871
:105920004FF4006008622046FFF7F8FD2020C4F81D
:10593000900084F88480ECE72068C06935EA0000B4
:1059400004D00020B842C3D00020E0E70120F9E7EE
:1059500010B51148FEF75EF80F480068C169C943E9
:10596000C90617D4102101620B48FEF708F80B484E
:10597000006840680B49C0F16400C2B20848027078
:105980000548FEF7A1FABDE8104064220549024827
:10599000FEF774BA10BD0000C4020020B803002056
:1059A0004000002018040020FEE70907090E002827
:1059B00004DB00F1E02080F80014704700F00F00D5
:1059C00000F1E02080F8141D7047000010B52DEDA7
:1059D000040B86B09DED060B10EE100A10EE901A27
:1059E0008DED000B002818BF0120084320F0004077
:1059F000C0F17F6000F1E040C00F21D19DED080BA8
:105A000010EE101A10EE900A8DED000B002918BF51
:105A10000121084320F00040C0F17F6000F1E04028
:105A2000C00F0DD129490798B1EB400F04BF06986C
:105A3000002842D00998400004BF089800283CD0B4
:105A40009DED080B53EC102B9DED060B51EC100B4C
:105A5000FAF74DFDCDE902019DED020B40F2FF7119
:105A600010EE900A8DED000B31EA105021D007980E
:105A7000039900F0004001F00041884219D09DEDEB
:105A8000080B8DED040B9DED020B8DED000B10EE60
:105A9000900A059961F31E0005909DED041B9DED94
:105AA000020B51EC110B53EC102BFAF71DFDCDE955
:105AB00002019DED020B0AB010BD012000F048F874
:105AC0000AB0BDE8104000F023B800000000E0FF7D
:105AD00010B52DED028BB1EEC08A18EE100A20F041
